{"abi":[{"type":"constructor","inputs":[],"stateMutability":"nonpayable"},{"type":"receive","stateMutability":"payable"},{"type":"function","name":"BPS_DENOM","inputs":[],"outputs":[{"name":"","type":"uint256","internalType":"uint256"}],"stateMutability":"view"},{"type":"function","name":"SESSION_TTL","inputs":[],"outputs":[{"name":"","type":"uint256","internalType":"uint256"}],"stateMutability":"view"},{"type":"function","name":"SLIPPAGE_BPS","inputs":[],"outputs":[{"name":"","type":"uint256","internalType":"uint256"}],"stateMutability":"view"},{"type":"function","name":"authorizedCreators","inputs":[{"name":"","type":"address","internalType":"address"}],"outputs":[{"name":"","type":"bool","internalType":"bool"}],"stateMutability":"view"},{"type":"function","name":"createSession","inputs":[{"name":"params","type":"tuple","internalType":"struct PaymentProcessor.PaymentSession","components":[{"name":"sessionId","type":"bytes32","internalType":"bytes32"},{"name":"merchant","type":"address","internalType":"address"},{"name":"fiatAmount","type":"uint256","internalType":"uint256"},{"name":"fiatCurrency","type":"bytes3","internalType":"bytes3"},{"name":"tokenAddress","type":"address","internalType":"address"},{"name":"tokenAmount","type":"uint256","internalType":"uint256"},{"name":"expiry","type":"uint256","internalType":"uint256"},{"name":"fulfilled","type":"bool","internalType":"bool"}]}],"outputs":[{"name":"","type":"bytes32","internalType":"bytes32"}],"stateMutability":"nonpayable"},{"type":"function","name":"getSession","inputs":[{"name":"sessionId","type":"bytes32","internalType":"bytes32"}],"outputs":[{"name":"","type":"tuple","internalType":"struct PaymentProcessor.PaymentSession","components":[{"name":"sessionId","type":"bytes32","internalType":"bytes32"},{"name":"merchant","type":"address","internalType":"address"},{"name":"fiatAmount","type":"uint256","internalType":"uint256"},{"name":"fiatCurrency","type":"bytes3","internalType":"bytes3"},{"name":"tokenAddress","type":"address","internalType":"address"},{"name":"tokenAmount","type":"uint256","internalType":"uint256"},{"name":"expiry","type":"uint256","internalType":"uint256"},{"name":"fulfilled","type":"bool","internalType":"bool"}]}],"stateMutability":"view"},{"type":"function","name":"isPayable","inputs":[{"name":"sessionId","type":"bytes32","internalType":"bytes32"}],"outputs":[{"name":"","type":"bool","internalType":"bool"}],"stateMutability":"view"},{"type":"function","name":"owner","inputs":[],"outputs":[{"name":"","type":"address","internalType":"address"}],"stateMutability":"view"},{"type":"function","name":"payNative","inputs":[{"name":"sessionId","type":"bytes32","internalType":"bytes32"}],"outputs":[],"stateMutability":"payable"},{"type":"function","name":"payToken","inputs":[{"name":"sessionId","type":"bytes32","internalType":"bytes32"},{"name":"token","type":"address","internalType":"address"}],"outputs":[],"stateMutability":"nonpayable"},{"type":"function","name":"setCreatorAuthorized","inputs":[{"name":"creator","type":"address","internalType":"address"},{"name":"authorized","type":"bool","internalType":"bool"}],"outputs":[],"stateMutability":"nonpayable"},{"type":"function","name":"transferOwnership","inputs":[{"name":"newOwner","type":"address","internalType":"address"}],"outputs":[],"stateMutability":"nonpayable"},{"type":"event","name":"CreatorAuthorized","inputs":[{"name":"creator","type":"address","indexed":true,"internalType":"address"},{"name":"authorized","type":"bool","indexed":false,"internalType":"bool"}],"anonymous":false},{"type":"event","name":"PaymentReceived","inputs":[{"name":"sessionId","type":"bytes32","indexed":true,"internalType":"bytes32"},{"name":"merchant","type":"address","indexed":true,"internalType":"address"},{"name":"payer","type":"address","indexed":true,"internalType":"address"},{"name":"token","type":"address","indexed":false,"internalType":"address"},{"name":"tokenAmount","type":"uint256","indexed":false,"internalType":"uint256"},{"name":"fiatAmount","type":"uint256","indexed":false,"internalType":"uint256"},{"name":"fiatCurrency","type":"bytes3","indexed":false,"internalType":"bytes3"}],"anonymous":false},{"type":"event","name":"SessionCreated","inputs":[{"name":"sessionId","type":"bytes32","indexed":true,"internalType":"bytes32"},{"name":"merchant","type":"address","indexed":true,"internalType":"address"},{"name":"fiatAmount","type":"uint256","indexed":false,"internalType":"uint256"},{"name":"fiatCurrency","type":"bytes3","indexed":false,"internalType":"bytes3"},{"name":"token","type":"address","indexed":false,"internalType":"address"},{"name":"tokenAmount","type":"uint256","indexed":false,"internalType":"uint256"},{"name":"expiry","type":"uint256","indexed":false,"internalType":"uint256"}],"anonymous":false},{"type":"event","name":"SessionExpired","inputs":[{"name":"sessionId","type":"bytes32","indexed":true,"internalType":"bytes32"}],"anonymous":false},{"type":"error","name":"ExcessiveAmount","inputs":[{"name":"sent","type":"uint256","internalType":"uint256"},{"name":"maxAllowed","type":"uint256","internalType":"uint256"}]},{"type":"error","name":"InsufficientAmount","inputs":[{"name":"sent","type":"uint256","internalType":"uint256"},{"name":"minRequired","type":"uint256","internalType":"uint256"}]},{"type":"error","name":"InvalidSession","inputs":[]},{"type":"error","name":"NativeTransferFailed","inputs":[]},{"type":"error","name":"SessionAlreadyFulfilled","inputs":[]},{"type":"error","name":"SessionExpiredError","inputs":[]},{"type":"error","name":"SessionNotFound","inputs":[]},{"type":"error","name":"Unauthorized","inputs":[]}],"bytecode":{"object":"0x608060405234801561000f575f80fd5b50600280546001600160a01b031916339081179091555f908152600160208190526040909120805460ff19169091179055610ed48061004d5f395ff3fe6080604052600436106100a8575f3560e01c80638da5cb5b116100625780638da5cb5b146101dc578063af89426a14610213578063c3f195f714610242578063c695502a14610261578063efc3d6091461028f578063f2fde38b146102a2575f80fd5b80632bc2e60e146100b357806339b240bd146100e55780634dba120b1461017d5780636637e38c146101925780637082bffb146101a757806377f8bb6d146101c8575f80fd5b366100af57005b5f80fd5b3480156100be575f80fd5b506100d26100cd366004610c9a565b6102c1565b6040519081526020015b60405180910390f35b3480156100f0575f80fd5b506101046100ff366004610d4d565b610507565b6040516100dc9190815181526020808301516001600160a01b0390811691830191909152604080840151908301526060808401516001600160e81b031916908301526080808401519091169082015260a0808301519082015260c0808301519082015260e0918201511515918101919091526101000190565b348015610188575f80fd5b506100d261038481565b34801561019d575f80fd5b506100d261271081565b3480156101b2575f80fd5b506101c66101c1366004610d64565b6105f2565b005b3480156101d3575f80fd5b506100d260c881565b3480156101e7575f80fd5b506002546101fb906001600160a01b031681565b6040516001600160a01b0390911681526020016100dc565b34801561021e575f80fd5b5061023261022d366004610d4d565b61067a565b60405190151581526020016100dc565b34801561024d575f80fd5b506101c661025c366004610d99565b61073c565b34801561026c575f80fd5b5061023261027b366004610dc3565b60016020525f908152604090205460ff1681565b6101c661029d366004610d4d565b610961565b3480156102ad575f80fd5b506101c66102bc366004610dc3565b610af0565b335f9081526001602052604081205460ff161580156102eb57506002546001600160a01b03163314155b15610308576040516282b42960e81b815260040160405180910390fd5b8151610327576040516316f78d3b60e11b815260040160405180910390fd5b81515f908152602081905260409020600101546001600160a01b031615610361576040516316f78d3b60e11b815260040160405180910390fd5b60208201516001600160a01b031661038c576040516316f78d3b60e11b815260040160405180910390fd5b8160a001515f036103b0576040516316f78d3b60e11b815260040160405180910390fd5b81604001515f036103d4576040516316f78d3b60e11b815260040160405180910390fd5b6103e061038442610df7565b60c083019081525f60e084018181528451825260208281526040928390208651808255918701516001820180546001600160a01b039283166001600160a01b03199091168117909155858901516002840181905560608a015160038501805460808d01519586166301000000026001600160b81b031990911660e884901c1717905560a08b01516004860181905598516005860181905596516006909501805495151560ff19909616959095179094559551909693957fd15f34e658c297f7238da2befcd38292467f3974bcf53f9458bcdc1217f5526a956104f695919493929485526001600160e81b03199390931660208501526001600160a01b039190911660408401526060830152608082015260a00190565b60405180910390a35080515b919050565b60408051610100810182525f80825260208201819052918101829052606081018290526080810182905260a0810182905260c0810182905260e08101919091525f82815260208181526040918290208251610100810184528154815260018201546001600160a01b0390811693820184905260028301549482019490945260038201546001600160e81b031960e882901b166060830152630100000090049093166080840152600481015460a0840152600581015460c08401526006015460ff16151560e08301526105ec576040516396c95f8160e01b815260040160405180910390fd5b92915050565b6002546001600160a01b0316331461061c576040516282b42960e81b815260040160405180910390fd5b6001600160a01b0382165f81815260016020908152604091829020805460ff191685151590811790915591519182527f9e83c683653d7d83a1491bef63f43ca382573f28a92bdf78652b6cfb73713bb8910160405180910390a25050565b5f818152602081815260408083208151610100810183528154815260018201546001600160a01b0390811694820185905260028301549382019390935260038201546001600160e81b031960e882901b166060830152630100000090049092166080830152600481015460a0830152600581015460c08301526006015460ff16151560e08201529061070e57505f92915050565b8060e001511561072057505f92915050565b8060c00151421061073357505f92915050565b50600192915050565b5f61074683610b81565b6003810154909150630100000090046001600160a01b031661077b576040516316f78d3b60e11b815260040160405180910390fd5b60038101546001600160a01b03838116630100000090920416146107b2576040516316f78d3b60e11b815260040160405180910390fd5b5f806107c18360040154610c03565b60048501549193509150828110156107fb57604051630da801c760e31b815260048101829052602481018490526044015b60405180910390fd5b81811115610826576040516338e65e3960e11b815260048101829052602481018390526044016107f2565b60068401805460ff191660019081179091558401546040516323b872dd60e01b81523360048201526001600160a01b039182166024820152604481018390525f918716906323b872dd906064016020604051808303815f875af115801561088f573d5f803e3d5ffd5b505050506040513d601f19601f820116820180604052508101906108b39190610e0a565b9050806108fa5760405162461bcd60e51b8152602060048201526015602482015274151bdad95b881d1c985b9cd9995c8819985a5b1959605a1b60448201526064016107f2565b60018501546002860154600387015460405133936001600160a01b0316928b927f60c0d3815d4e5775da9e0d6ce18ae30c32316c64b8a26333381858b6b68535ea92610950928d928a9260e89190911b90610e25565b60405180910390a450505050505050565b5f61096b82610b81565b6003810154909150630100000090046001600160a01b0316156109a1576040516316f78d3b60e11b815260040160405180910390fd5b5f806109b08360040154610c03565b91509150813410156109de57604051630da801c760e31b8152346004820152602481018390526044016107f2565b80341115610a08576040516338e65e3960e11b8152346004820152602481018290526044016107f2565b60068301805460ff191660019081179091558301546040515f916001600160a01b03169034908381818185875af1925050503d805f8114610a64576040519150601f19603f3d011682016040523d82523d5f602084013e610a69565b606091505b5050905080610a8b57604051633d2cec6f60e21b815260040160405180910390fd5b60018401546002850154600386015460405133936001600160a01b03169289927f60c0d3815d4e5775da9e0d6ce18ae30c32316c64b8a26333381858b6b68535ea92610ae1925f92349260e89190911b90610e25565b60405180910390a45050505050565b6002546001600160a01b03163314610b1a576040516282b42960e81b815260040160405180910390fd5b6001600160a01b038116610b5f5760405162461bcd60e51b815260206004820152600c60248201526b5a65726f206164647265737360a01b60448201526064016107f2565b600280546001600160a01b0319166001600160a01b0392909216919091179055565b5f81815260208190526040812060018101546001600160a01b0316610bb9576040516396c95f8160e01b815260040160405180910390fd5b600681015460ff1615610bdf5760405163d55ea52360e01b815260040160405180910390fd5b806005015442106105ec57604051636f0bebf560e11b815260040160405180910390fd5b5f80612710610c1360c882610e55565b610c1d9085610e68565b610c279190610e7f565b9150612710610c3760c882610df7565b610c419085610e68565b610c4b9190610e7f565b9050915091565b80356001600160a01b0381168114610502575f80fd5b80356001600160e81b031981168114610502575f80fd5b8015158114610c8c575f80fd5b50565b803561050281610c7f565b5f610100808385031215610cac575f80fd5b6040519081019067ffffffffffffffff82118183101715610cdb57634e487b7160e01b5f52604160045260245ffd5b8160405283358152610cef60208501610c52565b602082015260408401356040820152610d0a60608501610c68565b6060820152610d1b60808501610c52565b608082015260a084013560a082015260c084013560c0820152610d4060e08501610c8f565b60e0820152949350505050565b5f60208284031215610d5d575f80fd5b5035919050565b5f8060408385031215610d75575f80fd5b610d7e83610c52565b91506020830135610d8e81610c7f565b809150509250929050565b5f8060408385031215610daa575f80fd5b82359150610dba60208401610c52565b90509250929050565b5f60208284031215610dd3575f80fd5b610ddc82610c52565b9392505050565b634e487b7160e01b5f52601160045260245ffd5b808201808211156105ec576105ec610de3565b5f60208284031215610e1a575f80fd5b8151610ddc81610c7f565b6001600160a01b03949094168452602084019290925260408301526001600160e81b031916606082015260800190565b818103818111156105ec576105ec610de3565b80820281158282048414176105ec576105ec610de3565b5f82610e9957634e487b7160e01b5f52601260045260245ffd5b50049056fea2646970667358221220b9b21ce4e90b129b946066a3aab0da56ec5dad34c8c58702aad8c6d527471a0864736f6c63430008180033","linkReferences":{}},"methodIdentifiers":{"BPS_DENOM()":"6637e38c","SESSION_TTL()":"4dba120b","SLIPPAGE_BPS()":"77f8bb6d","authorizedCreators(address)":"c695502a","createSession((bytes32,address,uint256,bytes3,address,uint256,uint256,bool))":"2bc2e60e","getSession(bytes32)":"39b240bd","isPayable(bytes32)":"af89426a","owner()":"8da5cb5b","payNative(bytes32)":"efc3d609","payToken(bytes32,address)":"c3f195f7","setCreatorAuthorized(address,bool)":"7082bffb","transferOwnership(address)":"f2fde38b"},"id":16}